{
  "contractName": "SingleSwap",
  "abi": [
    {
      "inputs": [],
      "stateMutability": "nonpayable",
      "type": "constructor"
    },
    {
      "inputs": [],
      "name": "LINK",
      "outputs": [
        {
          "internalType": "address",
          "name": "",
          "type": "address"
        }
      ],
      "stateMutability": "view",
      "type": "function"
    },
    {
      "inputs": [],
      "name": "WETH",
      "outputs": [
        {
          "internalType": "address",
          "name": "",
          "type": "address"
        }
      ],
      "stateMutability": "view",
      "type": "function"
    },
    {
      "inputs": [],
      "name": "linkToken",
      "outputs": [
        {
          "internalType": "contract IERC20",
          "name": "",
          "type": "address"
        }
      ],
      "stateMutability": "view",
      "type": "function"
    },
    {
      "inputs": [],
      "name": "poolFee",
      "outputs": [
        {
          "internalType": "uint24",
          "name": "",
          "type": "uint24"
        }
      ],
      "stateMutability": "view",
      "type": "function"
    },
    {
      "inputs": [],
      "name": "routerAddress",
      "outputs": [
        {
          "internalType": "address",
          "name": "",
          "type": "address"
        }
      ],
      "stateMutability": "view",
      "type": "function"
    },
    {
      "inputs": [],
      "name": "swapRouter",
      "outputs": [
        {
          "internalType": "contract ISwapRouter",
          "name": "",
          "type": "address"
        }
      ],
      "stateMutability": "view",
      "type": "function"
    },
    {
      "inputs": [
        {
          "internalType": "uint256",
          "name": "amountIn",
          "type": "uint256"
        }
      ],
      "name": "swapExactInputSingle",
      "outputs": [
        {
          "internalType": "uint256",
          "name": "amountOut",
          "type": "uint256"
        }
      ],
      "stateMutability": "nonpayable",
      "type": "function"
    },
    {
      "inputs": [
        {
          "internalType": "uint256",
          "name": "amountOut",
          "type": "uint256"
        },
        {
          "internalType": "uint256",
          "name": "amountInMaximum",
          "type": "uint256"
        }
      ],
      "name": "swapExactOutputSingle",
      "outputs": [
        {
          "internalType": "uint256",
          "name": "amountIn",
          "type": "uint256"
        }
      ],
      "stateMutability": "nonpayable",
      "type": "function"
    }
  ],
  "bytecode": "0x60a06040527fb83a3756d818504038dd0718d43bc8e927851433000000000000000000000000608052600080546001600160a01b03191673c583970863c7aaa257cd6fce62746d07b0b5cfe117905534801561005a57600080fd5b5060805160601c61078c6100916000398061018152806102705280610320528061036b528061045a528061051c525061078c6000f3fe608060405234801561001057600080fd5b50600436106100885760003560e01c806373bd43ad1161005b57806373bd43ad146100d0578063ad5c4648146100f0578063c31c9c07146100f8578063c4b69a181461010057610088565b8063089fe6aa1461008d5780631b6b6d23146100ab5780633268cc56146100c057806357970e93146100c8575b600080fd5b610095610113565b6040516100a2919061073d565b60405180910390f35b6100b3610119565b6040516100a291906106fb565b6100b3610131565b6100b3610149565b6100e36100de366004610646565b610158565b6040516100a2919061074d565b6100b3610306565b6100b361031e565b6100e361010e366004610676565b610342565b610bb881565b73c583970863c7aaa257cd6fce62746d07b0b5cfe181565b73b83a3756d818504038dd0718d43bc8e92785143381565b6000546001600160a01b031681565b6000805460405163095ea7b360e01b81526001600160a01b039091169063095ea7b3906101ab907f000000000000000000000000000000000000000000000000000000000000000090869060040161070f565b602060405180830381600087803b1580156101c557600080fd5b505af11580156101d9573d6000803e3d6000fd5b505050506040513d601f19601f820116820180604052508101906101fd9190610626565b50604080516101008101825273c583970863c7aaa257cd6fce62746d07b0b5cfe1815273f0c9422a57140f3df0b5031240bda059268fecb46020820152610bb88183015230606082015242608082015260a08101849052600060c0820181905260e0820152905163414bf38960e01b81527f00000000000000000000000000000000000000000000000000000000000000006001600160a01b03169063414bf389906102ad908490600401610728565b602060405180830381600087803b1580156102c757600080fd5b505af11580156102db573d6000803e3d6000fd5b505050506040513d601f19601f820116820180604052508101906102ff919061065e565b9392505050565b73f0c9422a57140f3df0b5031240bda059268fecb481565b7f000000000000000000000000000000000000000000000000000000000000000081565b6000805460405163095ea7b360e01b81526001600160a01b039091169063095ea7b390610395907f000000000000000000000000000000000000000000000000000000000000000090869060040161070f565b602060405180830381600087803b1580156103af57600080fd5b505af11580156103c3573d6000803e3d6000fd5b505050506040513d601f19601f820116820180604052508101906103e79190610626565b50604080516101008101825273c583970863c7aaa257cd6fce62746d07b0b5cfe1815273f0c9422a57140f3df0b5031240bda059268fecb46020820152610bb88183015230606082015242608082015260a0810185905260c08101849052600060e08201529051631b67c43360e31b81527f00000000000000000000000000000000000000000000000000000000000000006001600160a01b03169063db3e219890610497908490600401610728565b602060405180830381600087803b1580156104b157600080fd5b505af11580156104c5573d6000803e3d6000fd5b505050506040513d601f19601f820116820180604052508101906104e9919061065e565b91508282101561061f576000805460405163095ea7b360e01b81526001600160a01b039091169163095ea7b391610544917f00000000000000000000000000000000000000000000000000000000000000009160040161070f565b602060405180830381600087803b15801561055e57600080fd5b505af1158015610572573d6000803e3d6000fd5b505050506040513d601f19601f820116820180604052508101906105969190610626565b5060005460405163a9059cbb60e01b81526001600160a01b039091169063a9059cbb906105cb9030908688039060040161070f565b602060405180830381600087803b1580156105e557600080fd5b505af11580156105f9573d6000803e3d6000fd5b505050506040513d601f19601f8201168201806040525081019061061d9190610626565b505b5092915050565b600060208284031215610637578081fd5b815180151581146102ff578182fd5b600060208284031215610657578081fd5b5035919050565b60006020828403121561066f578081fd5b5051919050565b60008060408385031215610688578081fd5b50508035926020909101359150565b6001600160a01b0380825116835280602083015116602084015262ffffff60408301511660408401528060608301511660608401526080820151608084015260a082015160a084015260c082015160c08401528060e08301511660e0840152505050565b6001600160a01b0391909116815260200190565b6001600160a01b03929092168252602082015260400190565b61010081016107378284610697565b92915050565b62ffffff91909116815260200190565b9081526020019056fea2646970667358221220fa5739b6ed3634109422b7024be977da0128029b1d6274697f6ecc6b2fee3b7e64736f6c63430007060033",
  "immutableReferences": {
    "148": [
      {
        "length": 32,
        "start": 385
      },
      {
        "length": 32,
        "start": 624
      },
      {
        "length": 32,
        "start": 800
      },
      {
        "length": 32,
        "start": 875
      },
      {
        "length": 32,
        "start": 1114
      },
      {
        "length": 32,
        "start": 1308
      }
    ]
  },
  "source": "// SPDX-License-Identifier: GPL-2.0-or-later\npragma solidity =0.7.6;\npragma abicoder v2;\n\nimport \"@uniswap/v3-periphery/contracts/interfaces/ISwapRouter.sol\";\n\ninterface IERC20 {\n    function balanceOf(address account) external view returns (uint256);\n\n    function transfer(address recipient, uint256 amount)\n        external\n        returns (bool);\n\n    function approve(address spender, uint256 amount) external returns (bool);\n}\n/**\nUSDT contract address :  0xc583970863C7aaA257cD6fCE62746d07b0b5CFE1\nUSDC contract address :  0xB763E1bD0bD12346F39eB564BDfd18aE083323D7\nWETH9 contract address :  0xF0C9422A57140F3dF0B5031240BdA059268FeCb4\nFactory contract address :  0xEB477Eefe54a1674d28a410970b35F176624eDaC\nRouter contract address :  0xB83A3756D818504038dD0718d43BC8E927851433\n */\ncontract SingleSwap {\n    address public constant routerAddress =\n        0xB83A3756D818504038dD0718d43BC8E927851433;\n    ISwapRouter public immutable swapRouter = ISwapRouter(routerAddress);\n\n    address public constant LINK = 0xc583970863C7aaA257cD6fCE62746d07b0b5CFE1;\n    address public constant WETH = 0xF0C9422A57140F3dF0B5031240BdA059268FeCb4;\n\n    IERC20 public linkToken = IERC20(LINK);\n\n    // For this example, we will set the pool fee to 0.3%.\n    uint24 public constant poolFee = 3000;\n\n    constructor() {}\n\n    function swapExactInputSingle(uint256 amountIn)\n        external\n        returns (uint256 amountOut)\n    {\n        linkToken.approve(address(swapRouter), amountIn);\n\n        ISwapRouter.ExactInputSingleParams memory params = ISwapRouter\n            .ExactInputSingleParams({\n                tokenIn: LINK,\n                tokenOut: WETH,\n                fee: poolFee,\n                recipient: address(this),\n                deadline: block.timestamp,\n                amountIn: amountIn,\n                amountOutMinimum: 0,\n                sqrtPriceLimitX96: 0\n            });\n\n        amountOut = swapRouter.exactInputSingle(params);\n    }\n\n    function swapExactOutputSingle(uint256 amountOut, uint256 amountInMaximum)\n        external\n        returns (uint256 amountIn)\n    {\n        linkToken.approve(address(swapRouter), amountInMaximum);\n\n        ISwapRouter.ExactOutputSingleParams memory params = ISwapRouter\n            .ExactOutputSingleParams({\n                tokenIn: LINK,\n                tokenOut: WETH,\n                fee: poolFee,\n                recipient: address(this),\n                deadline: block.timestamp,\n                amountOut: amountOut,\n                amountInMaximum: amountInMaximum,\n                sqrtPriceLimitX96: 0\n            });\n\n        amountIn = swapRouter.exactOutputSingle(params);\n\n        if (amountIn < amountInMaximum) {\n            linkToken.approve(address(swapRouter), 0);\n            linkToken.transfer(address(this), amountInMaximum - amountIn);\n        }\n    }\n}",
  "sourcePath": "/home/kim/workspace/eth/testUniswapV2/contract/contracts/testV3.sol",
  "compiler": {
    "name": "solc",
    "version": "0.7.6+commit.7338295f.Emscripten.clang"
  },
  "schemaVersion": "3.4.16",
  "updatedAt": "2024-06-25T00:22:40.127Z",
  "devdoc": {
    "kind": "dev",
    "methods": {},
    "version": 1
  },
  "userdoc": {
    "kind": "user",
    "methods": {},
    "notice": "USDT contract address :  0xc583970863C7aaA257cD6fCE62746d07b0b5CFE1 USDC contract address :  0xB763E1bD0bD12346F39eB564BDfd18aE083323D7 WETH9 contract address :  0xF0C9422A57140F3dF0B5031240BdA059268FeCb4 Factory contract address :  0xEB477Eefe54a1674d28a410970b35F176624eDaC Router contract address :  0xB83A3756D818504038dD0718d43BC8E927851433",
    "version": 1
  }
}